{
  "address": "0x81f4772bcA07EB6312e0dc1B30d8366354740Dc4",
  "abi": [
    {
      "anonymous": false,
      "inputs": [
        {
          "indexed": true,
          "internalType": "address",
          "name": "previousOwner",
          "type": "address"
        },
        {
          "indexed": true,
          "internalType": "address",
          "name": "newOwner",
          "type": "address"
        }
      ],
      "name": "OwnershipTransferred",
      "type": "event"
    },
    {
      "inputs": [
        {
          "internalType": "address",
          "name": "_tokenContractAddress",
          "type": "address"
        }
      ],
      "name": "balanceOf",
      "outputs": [
        {
          "internalType": "uint256",
          "name": "",
          "type": "uint256"
        }
      ],
      "stateMutability": "view",
      "type": "function"
    },
    {
      "inputs": [
        {
          "internalType": "address",
          "name": "_router0",
          "type": "address"
        },
        {
          "internalType": "address",
          "name": "_router1",
          "type": "address"
        },
        {
          "internalType": "address",
          "name": "_token0",
          "type": "address"
        },
        {
          "internalType": "address",
          "name": "_token1",
          "type": "address"
        },
        {
          "internalType": "uint256",
          "name": "_token0Balance",
          "type": "uint256"
        },
        {
          "internalType": "uint256",
          "name": "_token1Balance",
          "type": "uint256"
        }
      ],
      "name": "dT",
      "outputs": [],
      "stateMutability": "nonpayable",
      "type": "function"
    },
    {
      "inputs": [
        {
          "internalType": "address",
          "name": "_router0",
          "type": "address"
        },
        {
          "internalType": "address",
          "name": "_router1",
          "type": "address"
        },
        {
          "internalType": "address",
          "name": "_token0",
          "type": "address"
        },
        {
          "internalType": "address",
          "name": "_token1",
          "type": "address"
        },
        {
          "internalType": "uint256",
          "name": "_amount",
          "type": "uint256"
        }
      ],
      "name": "estDT",
      "outputs": [
        {
          "internalType": "uint256",
          "name": "",
          "type": "uint256"
        }
      ],
      "stateMutability": "view",
      "type": "function"
    },
    {
      "inputs": [
        {
          "internalType": "address",
          "name": "router",
          "type": "address"
        },
        {
          "internalType": "address",
          "name": "_tokenIn",
          "type": "address"
        },
        {
          "internalType": "address",
          "name": "_tokenOut",
          "type": "address"
        },
        {
          "internalType": "uint256",
          "name": "_amount",
          "type": "uint256"
        }
      ],
      "name": "getAOM",
      "outputs": [
        {
          "internalType": "uint256",
          "name": "",
          "type": "uint256"
        }
      ],
      "stateMutability": "view",
      "type": "function"
    },
    {
      "inputs": [],
      "name": "owner",
      "outputs": [
        {
          "internalType": "address",
          "name": "",
          "type": "address"
        }
      ],
      "stateMutability": "view",
      "type": "function"
    },
    {
      "inputs": [],
      "name": "recoverEth",
      "outputs": [],
      "stateMutability": "nonpayable",
      "type": "function"
    },
    {
      "inputs": [
        {
          "internalType": "address",
          "name": "tokenAddress",
          "type": "address"
        }
      ],
      "name": "recoverTokens",
      "outputs": [],
      "stateMutability": "nonpayable",
      "type": "function"
    },
    {
      "inputs": [],
      "name": "renounceOwnership",
      "outputs": [],
      "stateMutability": "nonpayable",
      "type": "function"
    },
    {
      "inputs": [
        {
          "internalType": "address",
          "name": "_router",
          "type": "address"
        },
        {
          "internalType": "address",
          "name": "_tokenIn",
          "type": "address"
        },
        {
          "internalType": "address",
          "name": "_tokenOut",
          "type": "address"
        },
        {
          "internalType": "uint256",
          "name": "_amount",
          "type": "uint256"
        }
      ],
      "name": "swap",
      "outputs": [],
      "stateMutability": "nonpayable",
      "type": "function"
    },
    {
      "inputs": [
        {
          "internalType": "address",
          "name": "newOwner",
          "type": "address"
        }
      ],
      "name": "transferOwnership",
      "outputs": [],
      "stateMutability": "nonpayable",
      "type": "function"
    },
    {
      "stateMutability": "payable",
      "type": "receive"
    }
  ],
  "transactionHash": "0x7e62c972a33732aea9cb7112a6ee755274371e9538b5222a7a6efe2a9e983591",
  "args": [],
  "numDeployments": 1,
  "solcInputHash": "4f0fe9eb0155c19be8aca4d871f12bf8",
  "bytecode": "0x608060405234801561001057600080fd5b5061002d61002261003260201b60201c565b61003a60201b60201c565b6100fe565b600033905090565b60008060009054906101000a900473ffffffffffffffffffffffffffffffffffffffff169050816000806101000a81548173ffffffffffffffffffffffffffffffffffffffff021916908373ffffffffffffffffffffffffffffffffffffffff1602179055508173ffffffffffffffffffffffffffffffffffffffff168173ffffffffffffffffffffffffffffffffffffffff167f8be0079c531659141344cd1fd0a4f28419497f9722a3daafe3b4186f6b6457e060405160405180910390a35050565b6114a68061010d6000396000f3fe6080604052600436106100955760003560e01c80639725389d116100595780639725389d14610186578063a9678a18146101c3578063bcdb446b146101ec578063cc5018cb14610203578063f2fde38b1461022c5761009c565b806316114acd146100a15780633176f102146100ca57806370a0823114610107578063715018a6146101445780638da5cb5b1461015b5761009c565b3661009c57005b600080fd5b3480156100ad57600080fd5b506100c860048036038101906100c39190610c0a565b610255565b005b3480156100d657600080fd5b506100f160048036038101906100ec9190610c6d565b61035e565b6040516100fe9190610ce3565b60405180910390f35b34801561011357600080fd5b5061012e60048036038101906101299190610c0a565b610504565b60405161013b9190610ce3565b60405180910390f35b34801561015057600080fd5b5061015961058c565b005b34801561016757600080fd5b506101706105a0565b60405161017d9190610d0d565b60405180910390f35b34801561019257600080fd5b506101ad60048036038101906101a89190610d28565b6105c9565b6040516101ba9190610ce3565b60405180910390f35b3480156101cf57600080fd5b506101ea60048036038101906101e59190610c6d565b6105f8565b005b3480156101f857600080fd5b50610201610807565b005b34801561020f57600080fd5b5061022a60048036038101906102259190610da3565b610858565b005b34801561023857600080fd5b50610253600480360381019061024e9190610c0a565b6109cb565b005b61025d610a4e565b60008190508073ffffffffffffffffffffffffffffffffffffffff1663a9059cbb338373ffffffffffffffffffffffffffffffffffffffff166370a08231306040518263ffffffff1660e01b81526004016102b89190610d0d565b602060405180830381865afa1580156102d5573d6000803e3d6000fd5b505050506040513d601f19601f820116820180604052508101906102f99190610e45565b6040518363ffffffff1660e01b8152600401610316929190610e72565b6020604051808303816000875af1158015610335573d6000803e3d6000fd5b505050506040513d601f19601f820116820180604052508101906103599190610ed3565b505050565b600080600267ffffffffffffffff81111561037c5761037b610f00565b5b6040519080825280602002602001820160405280156103aa5781602001602082028036833780820191505090505b50905084816000815181106103c2576103c1610f2f565b5b602002602001019073ffffffffffffffffffffffffffffffffffffffff16908173ffffffffffffffffffffffffffffffffffffffff1681525050838160018151811061041157610410610f2f565b5b602002602001019073ffffffffffffffffffffffffffffffffffffffff16908173ffffffffffffffffffffffffffffffffffffffff168152505060008673ffffffffffffffffffffffffffffffffffffffff1663d06ca61f85846040518363ffffffff1660e01b815260040161048892919061101c565b600060405180830381865afa1580156104a5573d6000803e3d6000fd5b505050506040513d6000823e3d601f19601f820116820180604052508101906104ce9190611176565b905080600183516104df91906111ee565b815181106104f0576104ef610f2f565b5b602002602001015192505050949350505050565b6000808273ffffffffffffffffffffffffffffffffffffffff166370a08231306040518263ffffffff1660e01b81526004016105409190610d0d565b602060405180830381865afa15801561055d573d6000803e3d6000fd5b505050506040513d601f19601f820116820180604052508101906105819190610e45565b905080915050919050565b610594610a4e565b61059e6000610acc565b565b60008060009054906101000a900473ffffffffffffffffffffffffffffffffffffffff16905090565b6000806105d88786868661035e565b905060006105e88786888561035e565b9050809250505095945050505050565b8273ffffffffffffffffffffffffffffffffffffffff1663095ea7b385836040518363ffffffff1660e01b8152600401610633929190610e72565b6020604051808303816000875af1158015610652573d6000803e3d6000fd5b505050506040513d601f19601f820116820180604052508101906106769190610ed3565b506060600267ffffffffffffffff81111561069457610693610f00565b5b6040519080825280602002602001820160405280156106c25781602001602082028036833780820191505090505b50905083816000815181106106da576106d9610f2f565b5b602002602001019073ffffffffffffffffffffffffffffffffffffffff16908173ffffffffffffffffffffffffffffffffffffffff1681525050828160018151811061072957610728610f2f565b5b602002602001019073ffffffffffffffffffffffffffffffffffffffff16908173ffffffffffffffffffffffffffffffffffffffff16815250506000601e426107729190611222565b90508573ffffffffffffffffffffffffffffffffffffffff166338ed17398460018530866040518663ffffffff1660e01b81526004016107b695949392919061129b565b6000604051808303816000875af11580156107d5573d6000803e3d6000fd5b505050506040513d6000823e3d601f19601f820116820180604052508101906107fe9190611176565b50505050505050565b61080f610a4e565b3373ffffffffffffffffffffffffffffffffffffffff166108fc479081150290604051600060405180830381858888f19350505050158015610855573d6000803e3d6000fd5b50565b610860610a4e565b61086c868585856105f8565b6000818473ffffffffffffffffffffffffffffffffffffffff166370a08231306040518263ffffffff1660e01b81526004016108a89190610d0d565b602060405180830381865afa1580156108c5573d6000803e3d6000fd5b505050506040513d601f19601f820116820180604052508101906108e99190610e45565b6108f391906111ee565b9050610901868587846105f8565b60008573ffffffffffffffffffffffffffffffffffffffff166370a08231306040518263ffffffff1660e01b815260040161093c9190610d0d565b602060405180830381865afa158015610959573d6000803e3d6000fd5b505050506040513d601f19601f8201168201806040525081019061097d9190610e45565b90508381116109c1576040517f08c379a00000000000000000000000000000000000000000000000000000000081526004016109b890611352565b60405180910390fd5b5050505050505050565b6109d3610a4e565b600073ffffffffffffffffffffffffffffffffffffffff168173ffffffffffffffffffffffffffffffffffffffff1603610a42576040517f08c379a0000000000000000000000000000000000000000000000000000000008152600401610a39906113e4565b60405180910390fd5b610a4b81610acc565b50565b610a56610b90565b73ffffffffffffffffffffffffffffffffffffffff16610a746105a0565b73ffffffffffffffffffffffffffffffffffffffff1614610aca576040517f08c379a0000000000000000000000000000000000000000000000000000000008152600401610ac190611450565b60405180910390fd5b565b60008060009054906101000a900473ffffffffffffffffffffffffffffffffffffffff169050816000806101000a81548173ffffffffffffffffffffffffffffffffffffffff021916908373ffffffffffffffffffffffffffffffffffffffff1602179055508173ffffffffffffffffffffffffffffffffffffffff168173ffffffffffffffffffffffffffffffffffffffff167f8be0079c531659141344cd1fd0a4f28419497f9722a3daafe3b4186f6b6457e060405160405180910390a35050565b600033905090565b6000604051905090565b600080fd5b600080fd5b600073ffffffffffffffffffffffffffffffffffffffff82169050919050565b6000610bd782610bac565b9050919050565b610be781610bcc565b8114610bf257600080fd5b50565b600081359050610c0481610bde565b92915050565b600060208284031215610c2057610c1f610ba2565b5b6000610c2e84828501610bf5565b91505092915050565b6000819050919050565b610c4a81610c37565b8114610c5557600080fd5b50565b600081359050610c6781610c41565b92915050565b60008060008060808587031215610c8757610c86610ba2565b5b6000610c9587828801610bf5565b9450506020610ca687828801610bf5565b9350506040610cb787828801610bf5565b9250506060610cc887828801610c58565b91505092959194509250565b610cdd81610c37565b82525050565b6000602082019050610cf86000830184610cd4565b92915050565b610d0781610bcc565b82525050565b6000602082019050610d226000830184610cfe565b92915050565b600080600080600060a08688031215610d4457610d43610ba2565b5b6000610d5288828901610bf5565b9550506020610d6388828901610bf5565b9450506040610d7488828901610bf5565b9350506060610d8588828901610bf5565b9250506080610d9688828901610c58565b9150509295509295909350565b60008060008060008060c08789031215610dc057610dbf610ba2565b5b6000610dce89828a01610bf5565b9650506020610ddf89828a01610bf5565b9550506040610df089828a01610bf5565b9450506060610e0189828a01610bf5565b9350506080610e1289828a01610c58565b92505060a0610e2389828a01610c58565b9150509295509295509295565b600081519050610e3f81610c41565b92915050565b600060208284031215610e5b57610e5a610ba2565b5b6000610e6984828501610e30565b91505092915050565b6000604082019050610e876000830185610cfe565b610e946020830184610cd4565b9392505050565b60008115159050919050565b610eb081610e9b565b8114610ebb57600080fd5b50565b600081519050610ecd81610ea7565b92915050565b600060208284031215610ee957610ee8610ba2565b5b6000610ef784828501610ebe565b91505092915050565b7f4e487b7100000000000000000000000000000000000000000000000000000000600052604160045260246000fd5b7f4e487b7100000000000000000000000000000000000000000000000000000000600052603260045260246000fd5b600081519050919050565b600082825260208201905092915050565b6000819050602082019050919050565b610f9381610bcc565b82525050565b6000610fa58383610f8a565b60208301905092915050565b6000602082019050919050565b6000610fc982610f5e565b610fd38185610f69565b9350610fde83610f7a565b8060005b8381101561100f578151610ff68882610f99565b975061100183610fb1565b925050600181019050610fe2565b5085935050505092915050565b60006040820190506110316000830185610cd4565b81810360208301526110438184610fbe565b90509392505050565b600080fd5b6000601f19601f8301169050919050565b61106b82611051565b810181811067ffffffffffffffff8211171561108a57611089610f00565b5b80604052505050565b600061109d610b98565b90506110a98282611062565b919050565b600067ffffffffffffffff8211156110c9576110c8610f00565b5b602082029050602081019050919050565b600080fd5b60006110f26110ed846110ae565b611093565b90508083825260208201905060208402830185811115611115576111146110da565b5b835b8181101561113e578061112a8882610e30565b845260208401935050602081019050611117565b5050509392505050565b600082601f83011261115d5761115c61104c565b5b815161116d8482602086016110df565b91505092915050565b60006020828403121561118c5761118b610ba2565b5b600082015167ffffffffffffffff8111156111aa576111a9610ba7565b5b6111b684828501611148565b91505092915050565b7f4e487b7100000000000000000000000000000000000000000000000000000000600052601160045260246000fd5b60006111f982610c37565b915061120483610c37565b925082820390508181111561121c5761121b6111bf565b5b92915050565b600061122d82610c37565b915061123883610c37565b92508282019050808211156112505761124f6111bf565b5b92915050565b6000819050919050565b6000819050919050565b600061128561128061127b84611256565b611260565b610c37565b9050919050565b6112958161126a565b82525050565b600060a0820190506112b06000830188610cd4565b6112bd602083018761128c565b81810360408301526112cf8186610fbe565b90506112de6060830185610cfe565b6112eb6080830184610cd4565b9695505050505050565b600082825260208201905092915050565b7f3a28000000000000000000000000000000000000000000000000000000000000600082015250565b600061133c6002836112f5565b915061134782611306565b602082019050919050565b6000602082019050818103600083015261136b8161132f565b9050919050565b7f4f776e61626c653a206e6577206f776e657220697320746865207a65726f206160008201527f6464726573730000000000000000000000000000000000000000000000000000602082015250565b60006113ce6026836112f5565b91506113d982611372565b604082019050919050565b600060208201905081810360008301526113fd816113c1565b9050919050565b7f4f776e61626c653a2063616c6c6572206973206e6f7420746865206f776e6572600082015250565b600061143a6020836112f5565b915061144582611404565b602082019050919050565b600060208201905081810360008301526114698161142d565b905091905056fea26469706673582212201effff580e56af43c36914ec7ac25fe3c37f78efec5e8e0c09f52f7499a9603964736f6c63430008130033",
  "devdoc": {
    "kind": "dev",
    "methods": {
      "owner()": {
        "details": "Returns the address of the current owner."
      },
      "renounceOwnership()": {
        "details": "Leaves the contract without owner. It will not be possible to call `onlyOwner` functions. Can only be called by the current owner. NOTE: Renouncing ownership will leave the contract without an owner, thereby disabling any functionality that is only available to the owner."
      },
      "transferOwnership(address)": {
        "details": "Transfers ownership of the contract to a new account (`newOwner`). Can only be called by the current owner."
      }
    },
    "version": 1
  },
  "userdoc": {
    "kind": "user",
    "methods": {},
    "version": 1
  },
  "storageLayout": {
    "storage": [
      {
        "astId": 7,
        "contract": "contracts/Arb.sol:Arb",
        "label": "_owner",
        "offset": 0,
        "slot": "0",
        "type": "t_address"
      }
    ],
    "types": {
      "t_address": {
        "encoding": "inplace",
        "label": "address",
        "numberOfBytes": "20"
      }
    }
  }
}